{
    "contractName": "supplyChain",
    "abi": [
        {
            "anonymous": false,
            "inputs": [
                {
                    "indexed": false,
                    "internalType": "uint32",
                    "name": "productId",
                    "type": "uint32"
                }
            ],
            "name": "Transfer",
            "type": "event"
        },
        {
            "inputs": [
                {
                    "internalType": "string",
                    "name": "_name",
                    "type": "string"
                },
                {
                    "internalType": "string",
                    "name": "_pass",
                    "type": "string"
                },
                {
                    "internalType": "address",
                    "name": "_pAdd",
                    "type": "address"
                },
                {
                    "internalType": "string",
                    "name": "_pType",
                    "type": "string"
                }
            ],
            "name": "createParticipant",
            "outputs": [
                {
                    "internalType": "uint32",
                    "name": "",
                    "type": "uint32"
                }
            ],
            "stateMutability": "nonpayable",
            "type": "function"
        },
        {
            "inputs": [
                {
                    "internalType": "uint32",
                    "name": "_ownerId",
                    "type": "uint32"
                },
                {
                    "internalType": "string",
                    "name": "_modelNumber",
                    "type": "string"
                },
                {
                    "internalType": "string",
                    "name": "_partNumber",
                    "type": "string"
                },
                {
                    "internalType": "string",
                    "name": "_serialNumber",
                    "type": "string"
                },
                {
                    "internalType": "uint32",
                    "name": "_productCost",
                    "type": "uint32"
                }
            ],
            "name": "createProduct",
            "outputs": [
                {
                    "internalType": "uint32",
                    "name": "",
                    "type": "uint32"
                }
            ],
            "stateMutability": "nonpayable",
            "type": "function"
        },
        {
            "inputs": [
                {
                    "internalType": "uint32",
                    "name": "_p_id",
                    "type": "uint32"
                }
            ],
            "name": "getParticipantDetails",
            "outputs": [
                {
                    "internalType": "string",
                    "name": "",
                    "type": "string"
                },
                {
                    "internalType": "address",
                    "name": "",
                    "type": "address"
                },
                {
                    "internalType": "string",
                    "name": "",
                    "type": "string"
                }
            ],
            "stateMutability": "view",
            "type": "function"
        },
        {
            "inputs": [
                {
                    "internalType": "uint32",
                    "name": "_productId",
                    "type": "uint32"
                }
            ],
            "name": "getProductDetails",
            "outputs": [
                {
                    "internalType": "string",
                    "name": "",
                    "type": "string"
                },
                {
                    "internalType": "string",
                    "name": "",
                    "type": "string"
                },
                {
                    "internalType": "string",
                    "name": "",
                    "type": "string"
                },
                {
                    "internalType": "uint32",
                    "name": "",
                    "type": "uint32"
                },
                {
                    "internalType": "address",
                    "name": "",
                    "type": "address"
                },
                {
                    "internalType": "uint32",
                    "name": "",
                    "type": "uint32"
                }
            ],
            "stateMutability": "view",
            "type": "function"
        },
        {
            "inputs": [
                {
                    "internalType": "uint32",
                    "name": "_prodId",
                    "type": "uint32"
                }
            ],
            "name": "getProductTrack",
            "outputs": [
                {
                    "internalType": "uint32[]",
                    "name": "",
                    "type": "uint32[]"
                }
            ],
            "stateMutability": "view",
            "type": "function"
        },
        {
            "inputs": [
                {
                    "internalType": "uint32",
                    "name": "_regId",
                    "type": "uint32"
                }
            ],
            "name": "getRegistrationDetails",
            "outputs": [
                {
                    "internalType": "uint32",
                    "name": "",
                    "type": "uint32"
                },
                {
                    "internalType": "uint32",
                    "name": "",
                    "type": "uint32"
                },
                {
                    "internalType": "address",
                    "name": "",
                    "type": "address"
                },
                {
                    "internalType": "uint32",
                    "name": "",
                    "type": "uint32"
                }
            ],
            "stateMutability": "view",
            "type": "function"
        },
        {
            "inputs": [],
            "name": "p_id",
            "outputs": [
                {
                    "internalType": "uint32",
                    "name": "",
                    "type": "uint32"
                }
            ],
            "stateMutability": "view",
            "type": "function"
        },
        {
            "inputs": [],
            "name": "r_id",
            "outputs": [
                {
                    "internalType": "uint32",
                    "name": "",
                    "type": "uint32"
                }
            ],
            "stateMutability": "view",
            "type": "function"
        },
        {
            "inputs": [
                {
                    "internalType": "uint32",
                    "name": "_user2Id",
                    "type": "uint32"
                },
                {
                    "internalType": "uint32",
                    "name": "_prodId",
                    "type": "uint32"
                }
            ],
            "name": "transferToOwner",
            "outputs": [
                {
                    "internalType": "bool",
                    "name": "",
                    "type": "bool"
                }
            ],
            "stateMutability": "nonpayable",
            "type": "function"
        },
        {
            "inputs": [],
            "name": "u_id",
            "outputs": [
                {
                    "internalType": "uint32",
                    "name": "",
                    "type": "uint32"
                }
            ],
            "stateMutability": "view",
            "type": "function"
        }
    ],
    "bytecode": "6080604052600080546001600160601b031916905534801561002057600080fd5b5061135d806100306000396000f3fe608060405234801561001057600080fd5b506004361061009e5760003560e01c80639dfb56ac116100665780639dfb56ac1461014a578063a8997d2e14610161578063b9d93d5f14610181578063e9f06d2b14610232578063f79e547b1461024a57600080fd5b8063043ba46a146100a357806328d5b69a146100cd5780635617f01e146100f257806389138c001461011457806391acc19a14610127575b600080fd5b6000546100b39063ffffffff1681565b60405163ffffffff90911681526020015b60405180910390f35b6100e06100db366004610db3565b61025d565b6040516100c496959493929190610e1b565b610105610100366004610db3565b61046b565b6040516100c493929190610e86565b6100b3610122366004610f67565b6105c2565b61013a610135366004611010565b61068a565b60405190151581526020016100c4565b6000546100b390600160401b900463ffffffff1681565b61017461016f366004610db3565b610af6565b6040516100c49190611043565b6101f961018f366004610db3565b63ffffffff8082166000908152600360209081526040918290208251608081018452905480851680835264010000000082048616938301849052600160401b82049095169382018490526001600160a01b03600160601b9091041660609091018190529093509193565b6040805163ffffffff958616815293851660208501526001600160a01b03909216918301919091529190911660608201526080016100c4565b6000546100b390640100000000900463ffffffff1681565b6100b361025836600461108d565b610b8b565b63ffffffff8082166000908152600160208190526040822060038101548154606095869586959094859485949193928401926002850192600160a01b83048216926001600160a01b03811692600160c01b909104169086906102be90611137565b80601f01602080910402602001604051908101604052809291908181526020018280546102ea90611137565b80156103375780601f1061030c57610100808354040283529160200191610337565b820191906000526020600020905b81548152906001019060200180831161031a57829003601f168201915b5050505050955084805461034a90611137565b80601f016020809104026020016040519081016040528092919081815260200182805461037690611137565b80156103c35780601f10610398576101008083540402835291602001916103c3565b820191906000526020600020905b8154815290600101906020018083116103a657829003601f168201915b505050505094508380546103d690611137565b80601f016020809104026020016040519081016040528092919081815260200182805461040290611137565b801561044f5780601f106104245761010080835404028352916020019161044f565b820191906000526020600020905b81548152906001019060200180831161043257829003601f168201915b5050505050935095509550955095509550955091939550919395565b63ffffffff81166000908152600260208190526040822060038101548154606094938593926001600160a01b0316919083019083906104a990611137565b80601f01602080910402602001604051908101604052809291908181526020018280546104d590611137565b80156105225780601f106104f757610100808354040283529160200191610522565b820191906000526020600020905b81548152906001019060200180831161050557829003601f168201915b5050505050925080805461053590611137565b80601f016020809104026020016040519081016040528092919081815260200182805461056190611137565b80156105ae5780601f10610583576101008083540402835291602001916105ae565b820191906000526020600020905b81548152906001019060200180831161059157829003601f168201915b505050505090509250925092509193909250565b600080548190640100000000900463ffffffff168160046105e283611171565b82546101009290920a63ffffffff8181021990931691831602179091558116600090815260026020526040902090915061061c87826111f1565b5063ffffffff8116600090815260026020526040902060010161063f86826111f1565b5063ffffffff811660009081526002602081905260409091206003810180546001600160a01b0319166001600160a01b0388161790550161068084826111f1565b5095945050505050565b63ffffffff811660009081526001602052604081206003015482906001600160a01b031633146106b957600080fd5b63ffffffff84166000908152600260205260408082208151608081019092528054829082906106e790611137565b80601f016020809104026020016040519081016040528092919081815260200182805461071390611137565b80156107605780601f1061073557610100808354040283529160200191610760565b820191906000526020600020905b81548152906001019060200180831161074357829003601f168201915b5050505050815260200160018201805461077990611137565b80601f01602080910402602001604051908101604052809291908181526020018280546107a590611137565b80156107f25780601f106107c7576101008083540402835291602001916107f2565b820191906000526020600020905b8154815290600101906020018083116107d557829003601f168201915b5050505050815260200160028201805461080b90611137565b80601f016020809104026020016040519081016040528092919081815260200182805461083790611137565b80156108845780601f1061085957610100808354040283529160200191610884565b820191906000526020600020905b81548152906001019060200180831161086757829003601f168201915b5050509183525050600391909101546001600160a01b03166020909101526000805491925090600160401b900463ffffffff168160086108c383611171565b91906101000a81548163ffffffff021916908363ffffffff160217905550905084600360008363ffffffff1663ffffffff16815260200190815260200160002060000160006101000a81548163ffffffff021916908363ffffffff1602179055508160600151600360008363ffffffff1663ffffffff168152602001908152602001600020600001600c6101000a8154816001600160a01b0302191690836001600160a01b0316021790555085600360008363ffffffff1663ffffffff16815260200190815260200160002060000160046101000a81548163ffffffff021916908363ffffffff16021790555042600360008363ffffffff1663ffffffff16815260200190815260200160002060000160086101000a81548163ffffffff021916908363ffffffff1602179055508160600151600160008763ffffffff1663ffffffff16815260200190815260200160002060030160006101000a8154816001600160a01b0302191690836001600160a01b03160217905550600460008663ffffffff1663ffffffff1681526020019081526020016000208190806001815401808255809150506001900390600052602060002090600891828204019190066004029091909190916101000a81548163ffffffff021916908363ffffffff1602179055507f4a7c2ed8675655246e11580786ba8a73e92e426d177368a8697ead49925146c285604051610ae2919063ffffffff91909116815260200190565b60405180910390a150600195945050505050565b63ffffffff8116600090815260046020908152604091829020805483518184028101840190945280845260609392830182828015610b7f57602002820191906000526020600020906000905b82829054906101000a900463ffffffff1663ffffffff1681526020019060040190602082600301049283019260010382029150808411610b425790505b50505050509050919050565b63ffffffff8516600090815260026020818152604080842090517fcec9b8e63c868f2f7f30368f1583e7aa39ae80e163d57a859fa5a90244b28ac193610bd493920191016112b1565b6040516020818303038152906040528051906020012003610d8d576000805463ffffffff168180610c0483611171565b82546101009290920a63ffffffff81810219909316918316021790915581166000908152600160205260409020909150610c3e87826111f1565b5063ffffffff8116600090815260016020819052604090912001610c6286826111f1565b5063ffffffff81166000908152600160205260409020600201610c8585826111f1565b5082600160008363ffffffff1663ffffffff16815260200190815260200160002060030160146101000a81548163ffffffff021916908363ffffffff160217905550600260008863ffffffff1663ffffffff16815260200190815260200160002060030160009054906101000a90046001600160a01b0316600160008363ffffffff1663ffffffff16815260200190815260200160002060030160006101000a8154816001600160a01b0302191690836001600160a01b0316021790555042600160008363ffffffff1663ffffffff16815260200190815260200160002060030160186101000a81548163ffffffff021916908363ffffffff16021790555080915050610d91565b5060005b95945050505050565b803563ffffffff81168114610dae57600080fd5b919050565b600060208284031215610dc557600080fd5b610dce82610d9a565b9392505050565b6000815180845260005b81811015610dfb57602081850181015186830182015201610ddf565b506000602082860101526020601f19601f83011685010191505092915050565b60c081526000610e2e60c0830189610dd5565b8281036020840152610e408189610dd5565b90508281036040840152610e548188610dd5565b63ffffffff96871660608501526001600160a01b039590951660808401525050921660a0909201919091529392505050565b606081526000610e996060830186610dd5565b6001600160a01b03851660208401528281036040840152610eba8185610dd5565b9695505050505050565b634e487b7160e01b600052604160045260246000fd5b600082601f830112610eeb57600080fd5b813567ffffffffffffffff80821115610f0657610f06610ec4565b604051601f8301601f19908116603f01168101908282118183101715610f2e57610f2e610ec4565b81604052838152866020858801011115610f4757600080fd5b836020870160208301376000602085830101528094505050505092915050565b60008060008060808587031215610f7d57600080fd5b843567ffffffffffffffff80821115610f9557600080fd5b610fa188838901610eda565b95506020870135915080821115610fb757600080fd5b610fc388838901610eda565b9450604087013591506001600160a01b0382168214610fe157600080fd5b90925060608601359080821115610ff757600080fd5b5061100487828801610eda565b91505092959194509250565b6000806040838503121561102357600080fd5b61102c83610d9a565b915061103a60208401610d9a565b90509250929050565b6020808252825182820181905260009190848201906040850190845b8181101561108157835163ffffffff168352928401929184019160010161105f565b50909695505050505050565b600080600080600060a086880312156110a557600080fd5b6110ae86610d9a565b9450602086013567ffffffffffffffff808211156110cb57600080fd5b6110d789838a01610eda565b955060408801359150808211156110ed57600080fd5b6110f989838a01610eda565b9450606088013591508082111561110f57600080fd5b5061111c88828901610eda565b92505061112b60808701610d9a565b90509295509295909350565b600181811c9082168061114b57607f821691505b60208210810361116b57634e487b7160e01b600052602260045260246000fd5b50919050565b600063ffffffff80831681810361119857634e487b7160e01b600052601160045260246000fd5b6001019392505050565b601f8211156111ec57600081815260208120601f850160051c810160208610156111c95750805b601f850160051c820191505b818110156111e8578281556001016111d5565b5050505b505050565b815167ffffffffffffffff81111561120b5761120b610ec4565b61121f816112198454611137565b846111a2565b602080601f831160018114611254576000841561123c5750858301515b600019600386901b1c1916600185901b1785556111e8565b600085815260208120601f198616915b8281101561128357888601518255948401946001909101908401611264565b50858210156112a15787850151600019600388901b60f8161c191681555b5050505050600190811b01905550565b60008083546112bf81611137565b600182811680156112d757600181146112ec5761131b565b60ff198416875282151583028701945061131b565b8760005260208060002060005b858110156113125781548a8201529084019082016112f9565b50505082870194505b5092969550505050505056fea26469706673582212202753728ee44f3df96f1e0aa043b7dbc032af151f80483726d5f462b5fba18f8d64736f6c63430008110033",
    "sourcePath": "c:/Users/danir/DAW/2ºDAW - PENDIENTES/Blockchain 27-11/Prueba_Smart_Contract/contracts/SupplyChain.sol",
    "compiler": {
        "name": "solc",
        "version": "0.8.17+commit.8df45f5f"
    },
    "functionHashes": {
        "createParticipant(string,string,address,string)": "89138c00",
        "createProduct(uint32,string,string,string,uint32)": "f79e547b",
        "getParticipantDetails(uint32)": "5617f01e",
        "getProductDetails(uint32)": "28d5b69a",
        "getProductTrack(uint32)": "a8997d2e",
        "getRegistrationDetails(uint32)": "b9d93d5f",
        "p_id()": "043ba46a",
        "r_id()": "9dfb56ac",
        "transferToOwner(uint32,uint32)": "91acc19a",
        "u_id()": "e9f06d2b"
    },
    "gasEstimates": {
        "creation": {
            "codeDepositCost": "991400",
            "executionCost": "25257",
            "totalCost": "1016657"
        },
        "external": {
            "createParticipant(string,string,address,string)": "infinite",
            "createProduct(uint32,string,string,string,uint32)": "infinite",
            "getParticipantDetails(uint32)": "infinite",
            "getProductDetails(uint32)": "infinite",
            "getProductTrack(uint32)": "infinite",
            "getRegistrationDetails(uint32)": "2889",
            "p_id()": "2303",
            "r_id()": "2319",
            "transferToOwner(uint32,uint32)": "infinite",
            "u_id()": "2379"
        }
    }
}