{
  "contractName": "supplyChain",
  "abi": [
    {
      "anonymous": false,
      "inputs": [
        {
          "indexed": false,
          "internalType": "uint32",
          "name": "productId",
          "type": "uint32"
        }
      ],
      "name": "Transfer",
      "type": "event"
    },
    {
      "inputs": [],
      "name": "p_id",
      "outputs": [
        {
          "internalType": "uint32",
          "name": "",
          "type": "uint32"
        }
      ],
      "stateMutability": "view",
      "type": "function",
      "constant": true
    },
    {
      "inputs": [],
      "name": "r_id",
      "outputs": [
        {
          "internalType": "uint32",
          "name": "",
          "type": "uint32"
        }
      ],
      "stateMutability": "view",
      "type": "function",
      "constant": true
    },
    {
      "inputs": [],
      "name": "u_id",
      "outputs": [
        {
          "internalType": "uint32",
          "name": "",
          "type": "uint32"
        }
      ],
      "stateMutability": "view",
      "type": "function",
      "constant": true
    },
    {
      "inputs": [
        {
          "internalType": "string",
          "name": "_name",
          "type": "string"
        },
        {
          "internalType": "string",
          "name": "_pass",
          "type": "string"
        },
        {
          "internalType": "address",
          "name": "_pAdd",
          "type": "address"
        },
        {
          "internalType": "string",
          "name": "_pType",
          "type": "string"
        }
      ],
      "name": "createParticipant",
      "outputs": [
        {
          "internalType": "uint32",
          "name": "",
          "type": "uint32"
        }
      ],
      "stateMutability": "nonpayable",
      "type": "function"
    },
    {
      "inputs": [
        {
          "internalType": "uint32",
          "name": "_p_id",
          "type": "uint32"
        }
      ],
      "name": "getParticipantDetails",
      "outputs": [
        {
          "internalType": "string",
          "name": "",
          "type": "string"
        },
        {
          "internalType": "address",
          "name": "",
          "type": "address"
        },
        {
          "internalType": "string",
          "name": "",
          "type": "string"
        }
      ],
      "stateMutability": "view",
      "type": "function",
      "constant": true
    },
    {
      "inputs": [
        {
          "internalType": "uint32",
          "name": "_ownerId",
          "type": "uint32"
        },
        {
          "internalType": "string",
          "name": "_modelNumber",
          "type": "string"
        },
        {
          "internalType": "string",
          "name": "_partNumber",
          "type": "string"
        },
        {
          "internalType": "string",
          "name": "_serialNumber",
          "type": "string"
        },
        {
          "internalType": "uint32",
          "name": "_productCost",
          "type": "uint32"
        }
      ],
      "name": "createProduct",
      "outputs": [
        {
          "internalType": "uint32",
          "name": "",
          "type": "uint32"
        }
      ],
      "stateMutability": "nonpayable",
      "type": "function"
    },
    {
      "inputs": [
        {
          "internalType": "uint32",
          "name": "_productId",
          "type": "uint32"
        }
      ],
      "name": "getProductDetails",
      "outputs": [
        {
          "internalType": "string",
          "name": "",
          "type": "string"
        },
        {
          "internalType": "string",
          "name": "",
          "type": "string"
        },
        {
          "internalType": "string",
          "name": "",
          "type": "string"
        },
        {
          "internalType": "uint32",
          "name": "",
          "type": "uint32"
        },
        {
          "internalType": "address",
          "name": "",
          "type": "address"
        },
        {
          "internalType": "uint32",
          "name": "",
          "type": "uint32"
        }
      ],
      "stateMutability": "view",
      "type": "function",
      "constant": true
    },
    {
      "inputs": [
        {
          "internalType": "uint32",
          "name": "_user2Id",
          "type": "uint32"
        },
        {
          "internalType": "uint32",
          "name": "_prodId",
          "type": "uint32"
        }
      ],
      "name": "transferToOwner",
      "outputs": [
        {
          "internalType": "bool",
          "name": "",
          "type": "bool"
        }
      ],
      "stateMutability": "nonpayable",
      "type": "function"
    },
    {
      "inputs": [
        {
          "internalType": "uint32",
          "name": "_prodId",
          "type": "uint32"
        }
      ],
      "name": "getProductTrack",
      "outputs": [
        {
          "internalType": "uint32[]",
          "name": "",
          "type": "uint32[]"
        }
      ],
      "stateMutability": "view",
      "type": "function",
      "constant": true
    },
    {
      "inputs": [
        {
          "internalType": "uint32",
          "name": "_regId",
          "type": "uint32"
        }
      ],
      "name": "getRegistrationDetails",
      "outputs": [
        {
          "internalType": "uint32",
          "name": "",
          "type": "uint32"
        },
        {
          "internalType": "uint32",
          "name": "",
          "type": "uint32"
        },
        {
          "internalType": "address",
          "name": "",
          "type": "address"
        },
        {
          "internalType": "uint32",
          "name": "",
          "type": "uint32"
        }
      ],
      "stateMutability": "view",
      "type": "function",
      "constant": true
    }
  ],
  "bytecode": "0x608060405260008060006101000a81548163ffffffff021916908363ffffffff16021790555060008060046101000a81548163ffffffff021916908363ffffffff16021790555060008060086101000a81548163ffffffff021916908363ffffffff16021790555034801561007357600080fd5b50611cac806100836000396000f3fe608060405234801561001057600080fd5b506004361061009e5760003560e01c80639dfb56ac116100665780639dfb56ac14610188578063a8997d2e146101a6578063b9d93d5f146101d6578063e9f06d2b14610209578063f79e547b146102275761009e565b8063043ba46a146100a357806328d5b69a146100c15780635617f01e146100f657806389138c001461012857806391acc19a14610158575b600080fd5b6100ab610257565b6040516100b891906111f4565b60405180910390f35b6100db60048036038101906100d6919061124f565b61026b565b6040516100ed9695949392919061134d565b60405180910390f35b610110600480360381019061010b919061124f565b61053d565b60405161011f939291906113c3565b60405180910390f35b610142600480360381019061013d9190611569565b6106ef565b60405161014f91906111f4565b60405180910390f35b610172600480360381019061016d9190611624565b610831565b60405161017f919061167f565b60405180910390f35b610190610d67565b60405161019d91906111f4565b60405180910390f35b6101c060048036038101906101bb919061124f565b610d7d565b6040516101cd9190611758565b60405180910390f35b6101f060048036038101906101eb919061124f565b610e20565b604051610200949392919061177a565b60405180910390f35b610211610f40565b60405161021e91906111f4565b60405180910390f35b610241600480360381019061023c91906117bf565b610f56565b60405161024e91906111f4565b60405180910390f35b60008054906101000a900463ffffffff1681565b60608060606000806000600160008863ffffffff1663ffffffff168152602001908152602001600020600001600160008963ffffffff1663ffffffff168152602001908152602001600020600101600160008a63ffffffff1663ffffffff168152602001908152602001600020600201600160008b63ffffffff1663ffffffff16815260200190815260200160002060030160149054906101000a900463ffffffff16600160008c63ffffffff1663ffffffff16815260200190815260200160002060030160009054906101000a900473ffffffffffffffffffffffffffffffffffffffff16600160008d63ffffffff1663ffffffff16815260200190815260200160002060030160189054906101000a900463ffffffff16858054610390906118bd565b80601f01602080910402602001604051908101604052809291908181526020018280546103bc906118bd565b80156104095780601f106103de57610100808354040283529160200191610409565b820191906000526020600020905b8154815290600101906020018083116103ec57829003601f168201915b5050505050955084805461041c906118bd565b80601f0160208091040260200160405190810160405280929190818152602001828054610448906118bd565b80156104955780601f1061046a57610100808354040283529160200191610495565b820191906000526020600020905b81548152906001019060200180831161047857829003601f168201915b505050505094508380546104a8906118bd565b80601f01602080910402602001604051908101604052809291908181526020018280546104d4906118bd565b80156105215780601f106104f657610100808354040283529160200191610521565b820191906000526020600020905b81548152906001019060200180831161050457829003601f168201915b5050505050935095509550955095509550955091939550919395565b606060006060600260008563ffffffff1663ffffffff168152602001908152602001600020600001600260008663ffffffff1663ffffffff16815260200190815260200160002060030160009054906101000a900473ffffffffffffffffffffffffffffffffffffffff16600260008763ffffffff1663ffffffff1681526020019081526020016000206002018280546105d6906118bd565b80601f0160208091040260200160405190810160405280929190818152602001828054610602906118bd565b801561064f5780601f106106245761010080835404028352916020019161064f565b820191906000526020600020905b81548152906001019060200180831161063257829003601f168201915b50505050509250808054610662906118bd565b80601f016020809104026020016040519081016040528092919081815260200182805461068e906118bd565b80156106db5780601f106106b0576101008083540402835291602001916106db565b820191906000526020600020905b8154815290600101906020018083116106be57829003601f168201915b505050505090509250925092509193909250565b6000806000600481819054906101000a900463ffffffff16809291906107149061191d565b91906101000a81548163ffffffff021916908363ffffffff160217905550905085600260008363ffffffff1663ffffffff16815260200190815260200160002060000190816107639190611aff565b5084600260008363ffffffff1663ffffffff16815260200190815260200160002060010190816107939190611aff565b5083600260008363ffffffff1663ffffffff16815260200190815260200160002060030160006101000a81548173ffffffffffffffffffffffffffffffffffffffff021916908373ffffffffffffffffffffffffffffffffffffffff16021790555082600260008363ffffffff1663ffffffff16815260200190815260200160002060020190816108249190611aff565b5080915050949350505050565b600081600160008263ffffffff1663ffffffff16815260200190815260200160002060030160009054906101000a900473ffffffffffffffffffffffffffffffffffffffff1673ffffffffffffffffffffffffffffffffffffffff163373ffffffffffffffffffffffffffffffffffffffff16146108ae57600080fd5b6000600260008663ffffffff1663ffffffff1681526020019081526020016000206040518060800160405290816000820180546108ea906118bd565b80601f0160208091040260200160405190810160405280929190818152602001828054610916906118bd565b80156109635780601f1061093857610100808354040283529160200191610963565b820191906000526020600020905b81548152906001019060200180831161094657829003601f168201915b5050505050815260200160018201805461097c906118bd565b80601f01602080910402602001604051908101604052809291908181526020018280546109a8906118bd565b80156109f55780601f106109ca576101008083540402835291602001916109f5565b820191906000526020600020905b8154815290600101906020018083116109d857829003601f168201915b50505050508152602001600282018054610a0e906118bd565b80601f0160208091040260200160405190810160405280929190818152602001828054610a3a906118bd565b8015610a875780601f10610a5c57610100808354040283529160200191610a87565b820191906000526020600020905b815481529060010190602001808311610a6a57829003601f168201915b505050505081526020016003820160009054906101000a900473ffffffffffffffffffffffffffffffffffffffff1673ffffffffffffffffffffffffffffffffffffffff1673ffffffffffffffffffffffffffffffffffffffff16815250509050600080600881819054906101000a900463ffffffff1680929190610b0b9061191d565b91906101000a81548163ffffffff021916908363ffffffff160217905550905084600360008363ffffffff1663ffffffff16815260200190815260200160002060000160006101000a81548163ffffffff021916908363ffffffff1602179055508160600151600360008363ffffffff1663ffffffff168152602001908152602001600020600001600c6101000a81548173ffffffffffffffffffffffffffffffffffffffff021916908373ffffffffffffffffffffffffffffffffffffffff16021790555085600360008363ffffffff1663ffffffff16815260200190815260200160002060000160046101000a81548163ffffffff021916908363ffffffff16021790555042600360008363ffffffff1663ffffffff16815260200190815260200160002060000160086101000a81548163ffffffff021916908363ffffffff1602179055508160600151600160008763ffffffff1663ffffffff16815260200190815260200160002060030160006101000a81548173ffffffffffffffffffffffffffffffffffffffff021916908373ffffffffffffffffffffffffffffffffffffffff160217905550600460008663ffffffff1663ffffffff1681526020019081526020016000208190806001815401808255809150506001900390600052602060002090600891828204019190066004029091909190916101000a81548163ffffffff021916908363ffffffff1602179055507f4a7c2ed8675655246e11580786ba8a73e92e426d177368a8697ead49925146c285604051610d5291906111f4565b60405180910390a16001935050505092915050565b600060089054906101000a900463ffffffff1681565b6060600460008363ffffffff1663ffffffff168152602001908152602001600020805480602002602001604051908101604052809291908181526020018280548015610e1457602002820191906000526020600020906000905b82829054906101000a900463ffffffff1663ffffffff1681526020019060040190602082600301049283019260010382029150808411610dd75790505b50505050509050919050565b6000806000806000600360008763ffffffff1663ffffffff1681526020019081526020016000206040518060800160405290816000820160009054906101000a900463ffffffff1663ffffffff1663ffffffff1681526020016000820160049054906101000a900463ffffffff1663ffffffff1663ffffffff1681526020016000820160089054906101000a900463ffffffff1663ffffffff1663ffffffff16815260200160008201600c9054906101000a900473ffffffffffffffffffffffffffffffffffffffff1673ffffffffffffffffffffffffffffffffffffffff1673ffffffffffffffffffffffffffffffffffffffff1681525050905080600001518160200151826060015183604001519450945094509450509193509193565b600060049054906101000a900463ffffffff1681565b60007fcec9b8e63c868f2f7f30368f1583e7aa39ae80e163d57a859fa5a90244b28ac1600260008863ffffffff1663ffffffff168152602001908152602001600020600201604051602001610fab9190611c5f565b60405160208183030381529060405280519060200120036111c757600080600081819054906101000a900463ffffffff1680929190610fe99061191d565b91906101000a81548163ffffffff021916908363ffffffff160217905550905085600160008363ffffffff1663ffffffff16815260200190815260200160002060000190816110389190611aff565b5084600160008363ffffffff1663ffffffff16815260200190815260200160002060010190816110689190611aff565b5083600160008363ffffffff1663ffffffff16815260200190815260200160002060020190816110989190611aff565b5082600160008363ffffffff1663ffffffff16815260200190815260200160002060030160146101000a81548163ffffffff021916908363ffffffff160217905550600260008863ffffffff1663ffffffff16815260200190815260200160002060030160009054906101000a900473ffffffffffffffffffffffffffffffffffffffff16600160008363ffffffff1663ffffffff16815260200190815260200160002060030160006101000a81548173ffffffffffffffffffffffffffffffffffffffff021916908373ffffffffffffffffffffffffffffffffffffffff16021790555042600160008363ffffffff1663ffffffff16815260200190815260200160002060030160186101000a81548163ffffffff021916908363ffffffff160217905550809150506111cc565b600090505b95945050505050565b600063ffffffff82169050919050565b6111ee816111d5565b82525050565b600060208201905061120960008301846111e5565b92915050565b6000604051905090565b600080fd5b600080fd5b61122c816111d5565b811461123757600080fd5b50565b60008135905061124981611223565b92915050565b60006020828403121561126557611264611219565b5b60006112738482850161123a565b91505092915050565b600081519050919050565b600082825260208201905092915050565b60005b838110156112b657808201518184015260208101905061129b565b60008484015250505050565b6000601f19601f8301169050919050565b60006112de8261127c565b6112e88185611287565b93506112f8818560208601611298565b611301816112c2565b840191505092915050565b600073ffffffffffffffffffffffffffffffffffffffff82169050919050565b60006113378261130c565b9050919050565b6113478161132c565b82525050565b600060c082019050818103600083015261136781896112d3565b9050818103602083015261137b81886112d3565b9050818103604083015261138f81876112d3565b905061139e60608301866111e5565b6113ab608083018561133e565b6113b860a08301846111e5565b979650505050505050565b600060608201905081810360008301526113dd81866112d3565b90506113ec602083018561133e565b81810360408301526113fe81846112d3565b9050949350505050565b600080fd5b600080fd5b7f4e487b7100000000000000000000000000000000000000000000000000000000600052604160045260246000fd5b61144a826112c2565b810181811067ffffffffffffffff8211171561146957611468611412565b5b80604052505050565b600061147c61120f565b90506114888282611441565b919050565b600067ffffffffffffffff8211156114a8576114a7611412565b5b6114b1826112c2565b9050602081019050919050565b82818337600083830152505050565b60006114e06114db8461148d565b611472565b9050828152602081018484840111156114fc576114fb61140d565b5b6115078482856114be565b509392505050565b600082601f83011261152457611523611408565b5b81356115348482602086016114cd565b91505092915050565b6115468161132c565b811461155157600080fd5b50565b6000813590506115638161153d565b92915050565b6000806000806080858703121561158357611582611219565b5b600085013567ffffffffffffffff8111156115a1576115a061121e565b5b6115ad8782880161150f565b945050602085013567ffffffffffffffff8111156115ce576115cd61121e565b5b6115da8782880161150f565b93505060406115eb87828801611554565b925050606085013567ffffffffffffffff81111561160c5761160b61121e565b5b6116188782880161150f565b91505092959194509250565b6000806040838503121561163b5761163a611219565b5b60006116498582860161123a565b925050602061165a8582860161123a565b9150509250929050565b60008115159050919050565b61167981611664565b82525050565b60006020820190506116946000830184611670565b92915050565b600081519050919050565b600082825260208201905092915050565b6000819050602082019050919050565b6116cf816111d5565b82525050565b60006116e183836116c6565b60208301905092915050565b6000602082019050919050565b60006117058261169a565b61170f81856116a5565b935061171a836116b6565b8060005b8381101561174b57815161173288826116d5565b975061173d836116ed565b92505060018101905061171e565b5085935050505092915050565b6000602082019050818103600083015261177281846116fa565b905092915050565b600060808201905061178f60008301876111e5565b61179c60208301866111e5565b6117a9604083018561133e565b6117b660608301846111e5565b95945050505050565b600080600080600060a086880312156117db576117da611219565b5b60006117e98882890161123a565b955050602086013567ffffffffffffffff81111561180a5761180961121e565b5b6118168882890161150f565b945050604086013567ffffffffffffffff8111156118375761183661121e565b5b6118438882890161150f565b935050606086013567ffffffffffffffff8111156118645761186361121e565b5b6118708882890161150f565b92505060806118818882890161123a565b9150509295509295909350565b7f4e487b7100000000000000000000000000000000000000000000000000000000600052602260045260246000fd5b600060028204905060018216806118d557607f821691505b6020821081036118e8576118e761188e565b5b50919050565b7f4e487b7100000000000000000000000000000000000000000000000000000000600052601160045260246000fd5b6000611928826111d5565b915063ffffffff820361193e5761193d6118ee565b5b600182019050919050565b60008190508160005260206000209050919050565b60006020601f8301049050919050565b600082821b905092915050565b6000600883026119ab7fffffffffffffffffffffffffffffffffffffffffffffffffffffffffffffffff8261196e565b6119b5868361196e565b95508019841693508086168417925050509392505050565b6000819050919050565b6000819050919050565b60006119fc6119f76119f2846119cd565b6119d7565b6119cd565b9050919050565b6000819050919050565b611a16836119e1565b611a2a611a2282611a03565b84845461197b565b825550505050565b600090565b611a3f611a32565b611a4a818484611a0d565b505050565b5b81811015611a6e57611a63600082611a37565b600181019050611a50565b5050565b601f821115611ab357611a8481611949565b611a8d8461195e565b81016020851015611a9c578190505b611ab0611aa88561195e565b830182611a4f565b50505b505050565b600082821c905092915050565b6000611ad660001984600802611ab8565b1980831691505092915050565b6000611aef8383611ac5565b9150826002028217905092915050565b611b088261127c565b67ffffffffffffffff811115611b2157611b20611412565b5b611b2b82546118bd565b611b36828285611a72565b600060209050601f831160018114611b695760008415611b57578287015190505b611b618582611ae3565b865550611bc9565b601f198416611b7786611949565b60005b82811015611b9f57848901518255600182019150602085019450602081019050611b7a565b86831015611bbc5784890151611bb8601f891682611ac5565b8355505b6001600288020188555050505b505050505050565b600081905092915050565b60008154611be9816118bd565b611bf38186611bd1565b94506001821660008114611c0e5760018114611c2357611c56565b60ff1983168652811515820286019350611c56565b611c2c85611949565b60005b83811015611c4e57815481890152600182019150602081019050611c2f565b838801955050505b50505092915050565b6000611c6b8284611bdc565b91508190509291505056fea2646970667358221220048ebd91a72ec3de0ca00776593bb43640b29225d1728214aa3c434f80a299a864736f6c63430008110033",
  "immutableReferences": {},
  "source": "//SPDX-License-Identifier: MIT\r\n\r\npragma solidity ^0.8.17;\r\n\r\n/// @title A title that should describe the contract/interface\r\n/// @author The name of the author\r\n/// @notice Explain to an end user what this does\r\n/// @dev Explain to a developer any extra details\r\n\r\ncontract supplyChain {\r\n    uint32 public p_id = 0; // ID del producto\r\n    uint32 public u_id = 0; // ID del participante\r\n    uint32 public r_id = 0; // ID de registro\r\n\r\n    struct product {\r\n        string modelNumber;\r\n        string partNumber;\r\n        string serialNumber;\r\n        address productOwner;\r\n        uint32 cost;\r\n        uint32 mfgTimeStamp;\r\n    }\r\n\r\n    mapping(uint32 => product) products;\r\n\r\n    struct participant {\r\n        string userName;\r\n        string password;\r\n        string participantType;\r\n        address participantAddress;\r\n    }\r\n\r\n    mapping(uint32 => participant) participants;\r\n\r\n    struct registration {\r\n        uint32 productId;\r\n        uint32 ownerId;\r\n        uint32 trxTimeStamp;\r\n        address productOwner;\r\n    }\r\n\r\n    mapping(uint32 => registration) registrations; // Registros mediante ID del registro (r_id)\r\n\r\n    mapping(uint32 => uint32[]) productTrack; // Registros mediante ID del producto (p_id)\r\n\r\n    event Transfer(uint32 productId);\r\n\r\n    function createParticipant(\r\n        string memory _name,\r\n        string memory _pass,\r\n        address _pAdd,\r\n        string memory _pType\r\n    ) public returns (uint32) {\r\n        uint32 userId = u_id++;\r\n        participants[userId].userName = _name;\r\n        participants[userId].password = _pass;\r\n        participants[userId].participantAddress = _pAdd;\r\n        participants[userId].participantType = _pType;\r\n        return userId;\r\n    }\r\n\r\n    function getParticipantDetails(uint32 _p_id)\r\n        public\r\n        view\r\n        returns (\r\n            string memory,\r\n            address,\r\n            string memory\r\n        )\r\n    {\r\n        return (\r\n            participants[_p_id].userName,\r\n            participants[_p_id].participantAddress,\r\n            participants[_p_id].participantType\r\n        );\r\n    }\r\n\r\n    function createProduct(\r\n        uint32 _ownerId,\r\n        string memory _modelNumber,\r\n        string memory _partNumber,\r\n        string memory _serialNumber,\r\n        uint32 _productCost\r\n    ) public returns (uint32) {\r\n        if (\r\n            keccak256(\r\n                abi.encodePacked(participants[_ownerId].participantType)\r\n            ) == keccak256(\"Manufacturer\")\r\n        ) {\r\n            uint32 productId = p_id++;\r\n            products[productId].modelNumber = _modelNumber;\r\n            products[productId].partNumber = _partNumber;\r\n            products[productId].serialNumber = _serialNumber;\r\n            products[productId].cost = _productCost;\r\n            products[productId].productOwner = participants[_ownerId]\r\n                .participantAddress;\r\n            products[productId].mfgTimeStamp = uint32(block.timestamp);\r\n            return productId;\r\n        }\r\n        return 0;\r\n    }\r\n\r\n    modifier onlyOwner(uint32 _productId) {\r\n        require(msg.sender == products[_productId].productOwner);\r\n        _;\r\n    }\r\n\r\n    function getProductDetails(uint32 _productId)\r\n        public\r\n        view\r\n        returns (\r\n            string memory,\r\n            string memory,\r\n            string memory,\r\n            uint32,\r\n            address,\r\n            uint32\r\n        )\r\n    {\r\n        return (\r\n            products[_productId].modelNumber,\r\n            products[_productId].partNumber,\r\n            products[_productId].serialNumber,\r\n            products[_productId].cost,\r\n            products[_productId].productOwner,\r\n            products[_productId].mfgTimeStamp\r\n        );\r\n    }\r\n\r\n    function transferToOwner(\r\n        uint32 _user2Id,\r\n        uint32 _prodId\r\n    ) onlyOwner(_prodId) public returns (bool) {\r\n        participant memory p2 = participants[_user2Id];\r\n        uint32 registration_id = r_id++;\r\n        registrations[registration_id].productId = _prodId;\r\n        registrations[registration_id].productOwner = p2.participantAddress;\r\n        registrations[registration_id].ownerId = _user2Id;\r\n        registrations[registration_id].trxTimeStamp = uint32(block.timestamp);\r\n        products[_prodId].productOwner = p2.participantAddress;\r\n        productTrack[_prodId].push(registration_id);\r\n        emit Transfer(_prodId);\r\n\r\n        return (true);\r\n    }\r\n\r\n    function getProductTrack(uint32 _prodId)\r\n        external\r\n        view\r\n        returns (uint32[] memory)\r\n    {\r\n        return productTrack[_prodId];\r\n    }\r\n\r\n    function getRegistrationDetails(uint32 _regId)\r\n        public\r\n        view\r\n        returns (\r\n            uint32,\r\n            uint32,\r\n            address,\r\n            uint32\r\n        )\r\n    {\r\n        registration memory r = registrations[_regId];\r\n        return (r.productId, r.ownerId, r.productOwner, r.trxTimeStamp);\r\n    }\r\n}\r\n",
  "sourcePath": "C:\\Users\\danir\\DAW\\2DAW - PENDIENTES\\Blockchain 27-11\\Prueba_Smart_Contract\\contracts\\SupplyChain.sol",
  "compiler": {
    "name": "solc",
    "version": "0.8.17+commit.8df45f5f.Emscripten.clang"
  },
  "schemaVersion": "3.4.11",
  "updatedAt": "2023-02-06T21:28:01.817Z",
  "networkType": "ethereum",
  "devdoc": {
    "author": "The name of the author",
    "details": "Explain to a developer any extra details",
    "kind": "dev",
    "methods": {},
    "title": "A title that should describe the contract/interface",
    "version": 1
  },
  "userdoc": {
    "kind": "user",
    "methods": {},
    "notice": "Explain to an end user what this does",
    "version": 1
  }
}